{
  "_format": "hh-sol-artifact-1",
  "contractName": "Remittance",
  "sourceName": "contracts/Remittance.sol",
  "abi": [
    {
      "inputs": [
        {
          "internalType": "address",
          "name": "_owner",
          "type": "address"
        }
      ],
      "stateMutability": "nonpayable",
      "type": "constructor"
    },
    {
      "anonymous": false,
      "inputs": [
        {
          "indexed": false,
          "internalType": "uint256",
          "name": "oldFee",
          "type": "uint256"
        },
        {
          "indexed": false,
          "internalType": "uint256",
          "name": "newFee",
          "type": "uint256"
        },
        {
          "indexed": false,
          "internalType": "uint256",
          "name": "timestamp",
          "type": "uint256"
        }
      ],
      "name": "ConversionFeeUpdated",
      "type": "event"
    },
    {
      "anonymous": false,
      "inputs": [
        {
          "indexed": false,
          "internalType": "address",
          "name": "fromToken",
          "type": "address"
        },
        {
          "indexed": false,
          "internalType": "address",
          "name": "toToken",
          "type": "address"
        },
        {
          "indexed": false,
          "internalType": "uint256",
          "name": "rate",
          "type": "uint256"
        },
        {
          "indexed": false,
          "internalType": "uint256",
          "name": "timestamp",
          "type": "uint256"
        }
      ],
      "name": "ExchangeRateUpdated",
      "type": "event"
    },
    {
      "anonymous": false,
      "inputs": [
        {
          "indexed": false,
          "internalType": "address",
          "name": "token",
          "type": "address"
        },
        {
          "indexed": false,
          "internalType": "uint256",
          "name": "amount",
          "type": "uint256"
        },
        {
          "indexed": false,
          "internalType": "uint256",
          "name": "timestamp",
          "type": "uint256"
        }
      ],
      "name": "FeesCollected",
      "type": "event"
    },
    {
      "anonymous": false,
      "inputs": [
        {
          "indexed": false,
          "internalType": "address",
          "name": "token",
          "type": "address"
        },
        {
          "indexed": false,
          "internalType": "uint256",
          "name": "amount",
          "type": "uint256"
        },
        {
          "indexed": false,
          "internalType": "uint256",
          "name": "timestamp",
          "type": "uint256"
        }
      ],
      "name": "LiquidityAdded",
      "type": "event"
    },
    {
      "anonymous": false,
      "inputs": [
        {
          "indexed": false,
          "internalType": "address",
          "name": "token",
          "type": "address"
        },
        {
          "indexed": false,
          "internalType": "uint256",
          "name": "amount",
          "type": "uint256"
        },
        {
          "indexed": false,
          "internalType": "uint256",
          "name": "timestamp",
          "type": "uint256"
        }
      ],
      "name": "LiquidityRemoved",
      "type": "event"
    },
    {
      "anonymous": false,
      "inputs": [
        {
          "indexed": false,
          "internalType": "string",
          "name": "countryCode",
          "type": "string"
        },
        {
          "indexed": false,
          "internalType": "address",
          "name": "stablecoin",
          "type": "address"
        },
        {
          "indexed": false,
          "internalType": "uint256",
          "name": "timestamp",
          "type": "uint256"
        }
      ],
      "name": "StablecoinAssigned",
      "type": "event"
    },
    {
      "anonymous": false,
      "inputs": [
        {
          "indexed": true,
          "internalType": "address",
          "name": "from",
          "type": "address"
        },
        {
          "indexed": true,
          "internalType": "address",
          "name": "to",
          "type": "address"
        },
        {
          "indexed": false,
          "internalType": "string",
          "name": "fromCountry",
          "type": "string"
        },
        {
          "indexed": false,
          "internalType": "string",
          "name": "toCountry",
          "type": "string"
        },
        {
          "indexed": false,
          "internalType": "uint256",
          "name": "sentAmount",
          "type": "uint256"
        },
        {
          "indexed": false,
          "internalType": "uint256",
          "name": "convertedAmount",
          "type": "uint256"
        },
        {
          "indexed": false,
          "internalType": "uint256",
          "name": "fee",
          "type": "uint256"
        },
        {
          "indexed": false,
          "internalType": "bytes32",
          "name": "referenceId",
          "type": "bytes32"
        },
        {
          "indexed": false,
          "internalType": "uint256",
          "name": "timestamp",
          "type": "uint256"
        }
      ],
      "name": "TransferCompleted",
      "type": "event"
    },
    {
      "anonymous": false,
      "inputs": [
        {
          "indexed": true,
          "internalType": "address",
          "name": "recipient",
          "type": "address"
        },
        {
          "indexed": false,
          "internalType": "address",
          "name": "token",
          "type": "address"
        },
        {
          "indexed": false,
          "internalType": "uint256",
          "name": "amount",
          "type": "uint256"
        },
        {
          "indexed": false,
          "internalType": "uint256",
          "name": "timestamp",
          "type": "uint256"
        }
      ],
      "name": "WithdrawalCompleted",
      "type": "event"
    },
    {
      "inputs": [
        {
          "internalType": "address",
          "name": "token",
          "type": "address"
        },
        {
          "internalType": "uint256",
          "name": "amount",
          "type": "uint256"
        }
      ],
      "name": "addLiquidity",
      "outputs": [],
      "stateMutability": "nonpayable",
      "type": "function"
    },
    {
      "inputs": [
        {
          "internalType": "address",
          "name": "token",
          "type": "address"
        }
      ],
      "name": "collectFees",
      "outputs": [],
      "stateMutability": "nonpayable",
      "type": "function"
    },
    {
      "inputs": [
        {
          "internalType": "address",
          "name": "",
          "type": "address"
        }
      ],
      "name": "collectedFees",
      "outputs": [
        {
          "internalType": "uint256",
          "name": "",
          "type": "uint256"
        }
      ],
      "stateMutability": "view",
      "type": "function"
    },
    {
      "inputs": [],
      "name": "conversionFee",
      "outputs": [
        {
          "internalType": "uint256",
          "name": "",
          "type": "uint256"
        }
      ],
      "stateMutability": "view",
      "type": "function"
    },
    {
      "inputs": [
        {
          "internalType": "string",
          "name": "",
          "type": "string"
        }
      ],
      "name": "countryStablecoins",
      "outputs": [
        {
          "internalType": "address",
          "name": "",
          "type": "address"
        }
      ],
      "stateMutability": "view",
      "type": "function"
    },
    {
      "inputs": [
        {
          "internalType": "address",
          "name": "token",
          "type": "address"
        },
        {
          "internalType": "uint256",
          "name": "amount",
          "type": "uint256"
        }
      ],
      "name": "emergencyWithdraw",
      "outputs": [],
      "stateMutability": "nonpayable",
      "type": "function"
    },
    {
      "inputs": [
        {
          "internalType": "address",
          "name": "",
          "type": "address"
        },
        {
          "internalType": "address",
          "name": "",
          "type": "address"
        }
      ],
      "name": "exchangeRates",
      "outputs": [
        {
          "internalType": "uint256",
          "name": "",
          "type": "uint256"
        }
      ],
      "stateMutability": "view",
      "type": "function"
    },
    {
      "inputs": [
        {
          "internalType": "address",
          "name": "token",
          "type": "address"
        }
      ],
      "name": "getCollectedFees",
      "outputs": [
        {
          "internalType": "uint256",
          "name": "",
          "type": "uint256"
        }
      ],
      "stateMutability": "view",
      "type": "function"
    },
    {
      "inputs": [
        {
          "internalType": "address",
          "name": "fromToken",
          "type": "address"
        },
        {
          "internalType": "address",
          "name": "toToken",
          "type": "address"
        }
      ],
      "name": "getExchangeRate",
      "outputs": [
        {
          "internalType": "uint256",
          "name": "",
          "type": "uint256"
        }
      ],
      "stateMutability": "view",
      "type": "function"
    },
    {
      "inputs": [
        {
          "internalType": "address",
          "name": "token",
          "type": "address"
        }
      ],
      "name": "getLiquidityBalance",
      "outputs": [
        {
          "internalType": "uint256",
          "name": "",
          "type": "uint256"
        }
      ],
      "stateMutability": "view",
      "type": "function"
    },
    {
      "inputs": [
        {
          "internalType": "address",
          "name": "recipient",
          "type": "address"
        },
        {
          "internalType": "address",
          "name": "token",
          "type": "address"
        }
      ],
      "name": "getPendingWithdrawal",
      "outputs": [
        {
          "internalType": "uint256",
          "name": "",
          "type": "uint256"
        }
      ],
      "stateMutability": "view",
      "type": "function"
    },
    {
      "inputs": [
        {
          "internalType": "string",
          "name": "countryCode",
          "type": "string"
        }
      ],
      "name": "getStablecoinForCountry",
      "outputs": [
        {
          "internalType": "address",
          "name": "",
          "type": "address"
        }
      ],
      "stateMutability": "view",
      "type": "function"
    },
    {
      "inputs": [
        {
          "internalType": "address",
          "name": "",
          "type": "address"
        }
      ],
      "name": "liquidityPools",
      "outputs": [
        {
          "internalType": "uint256",
          "name": "",
          "type": "uint256"
        }
      ],
      "stateMutability": "view",
      "type": "function"
    },
    {
      "inputs": [],
      "name": "owner",
      "outputs": [
        {
          "internalType": "address",
          "name": "",
          "type": "address"
        }
      ],
      "stateMutability": "view",
      "type": "function"
    },
    {
      "inputs": [],
      "name": "paused",
      "outputs": [
        {
          "internalType": "bool",
          "name": "",
          "type": "bool"
        }
      ],
      "stateMutability": "view",
      "type": "function"
    },
    {
      "inputs": [
        {
          "internalType": "address",
          "name": "",
          "type": "address"
        },
        {
          "internalType": "address",
          "name": "",
          "type": "address"
        }
      ],
      "name": "pendingWithdrawals",
      "outputs": [
        {
          "internalType": "uint256",
          "name": "",
          "type": "uint256"
        }
      ],
      "stateMutability": "view",
      "type": "function"
    },
    {
      "inputs": [
        {
          "internalType": "address",
          "name": "token",
          "type": "address"
        },
        {
          "internalType": "uint256",
          "name": "amount",
          "type": "uint256"
        }
      ],
      "name": "removeLiquidity",
      "outputs": [],
      "stateMutability": "nonpayable",
      "type": "function"
    },
    {
      "inputs": [
        {
          "internalType": "string",
          "name": "fromCountry",
          "type": "string"
        },
        {
          "internalType": "string",
          "name": "toCountry",
          "type": "string"
        },
        {
          "internalType": "address",
          "name": "to",
          "type": "address"
        },
        {
          "internalType": "uint256",
          "name": "amount",
          "type": "uint256"
        },
        {
          "internalType": "bytes32",
          "name": "referenceId",
          "type": "bytes32"
        }
      ],
      "name": "sendRemittance",
      "outputs": [],
      "stateMutability": "nonpayable",
      "type": "function"
    },
    {
      "inputs": [
        {
          "internalType": "uint256",
          "name": "_fee",
          "type": "uint256"
        }
      ],
      "name": "setConversionFee",
      "outputs": [],
      "stateMutability": "nonpayable",
      "type": "function"
    },
    {
      "inputs": [
        {
          "internalType": "address",
          "name": "fromToken",
          "type": "address"
        },
        {
          "internalType": "address",
          "name": "toToken",
          "type": "address"
        },
        {
          "internalType": "uint256",
          "name": "rate",
          "type": "uint256"
        }
      ],
      "name": "setExchangeRate",
      "outputs": [],
      "stateMutability": "nonpayable",
      "type": "function"
    },
    {
      "inputs": [
        {
          "internalType": "bool",
          "name": "_paused",
          "type": "bool"
        }
      ],
      "name": "setPaused",
      "outputs": [],
      "stateMutability": "nonpayable",
      "type": "function"
    },
    {
      "inputs": [
        {
          "internalType": "string",
          "name": "countryCode",
          "type": "string"
        },
        {
          "internalType": "address",
          "name": "tokenAddress",
          "type": "address"
        }
      ],
      "name": "setStablecoinForCountry",
      "outputs": [],
      "stateMutability": "nonpayable",
      "type": "function"
    },
    {
      "inputs": [
        {
          "internalType": "address",
          "name": "newOwner",
          "type": "address"
        }
      ],
      "name": "transferOwnership",
      "outputs": [],
      "stateMutability": "nonpayable",
      "type": "function"
    },
    {
      "inputs": [
        {
          "internalType": "address",
          "name": "tokenAddress",
          "type": "address"
        }
      ],
      "name": "withdrawRemittance",
      "outputs": [],
      "stateMutability": "nonpayable",
      "type": "function"
    }
  ],
  "bytecode": "0x608060405260326005556007805460ff191690553480156200002057600080fd5b5060405162002166380380620021668339810160408190526200004391620000b4565b6001600160a01b0381166200008e5760405162461bcd60e51b815260206004820152600d60248201526c24b73b30b634b21037bbb732b960991b604482015260640160405180910390fd5b600080546001600160a01b0319166001600160a01b0392909216919091179055620000e6565b600060208284031215620000c757600080fd5b81516001600160a01b0381168114620000df57600080fd5b9392505050565b61207080620000f66000396000f3fe608060405234801561001057600080fd5b50600436106101585760003560e01c80638e930b3e116100c3578063a480ca791161007c578063a480ca791461035f578063ae0495fc14610372578063baaa61be14610385578063c88b7c8e146103be578063e831be58146103d1578063f2fde38b146103fc57600080fd5b80638e930b3e146102a05780638f02a3c2146102c957806395ccea67146102fd578063a0fb32ce14610310578063a201ccf614610323578063a3daed991461033657600080fd5b80635699c7b1116101155780635699c7b114610216578063579cd3ca146102295780635c975abb14610232578063782aaeea1461024f57806388154b08146102625780638da5cb5b1461028d57600080fd5b80630b0fd47e1461015d57806316c38b3c146101905780631cead9a7146101a5578063501f3fbb146101c5578063503fa44f146101d85780635668870014610203575b600080fd5b61017d61016b366004611a1e565b60036020526000908152604090205481565b6040519081526020015b60405180910390f35b6101a361019e366004611a51565b61040f565b005b61017d6101b3366004611a1e565b60066020526000908152604090205481565b6101a36101d3366004611a1e565b610455565b61017d6101e6366004611a6e565b600460209081526000928352604080842090915290825290205481565b6101a3610211366004611aa1565b610678565b61017d610224366004611a6e565b610811565b61017d60055481565b60075461023f9060ff1681565b6040519015158152602001610187565b6101a361025d366004611acb565b61083e565b610275610270366004611baa565b6109d6565b6040516001600160a01b039091168152602001610187565b600054610275906001600160a01b031681565b61017d6102ae366004611a1e565b6001600160a01b031660009081526003602052604090205490565b6102756102d7366004611baa565b80516020818301810180516001825292820191909301209152546001600160a01b031681565b6101a361030b366004611aa1565b610a07565b6101a361031e366004611be7565b610c06565b6101a3610331366004611aa1565b610d42565b61017d610344366004611a1e565b6001600160a01b031660009081526006602052604090205490565b6101a361036d366004611a1e565b610ef9565b6101a3610380366004611c2c565b61107e565b61017d610393366004611a6e565b6001600160a01b03918216600090815260046020908152604080832093909416825291909152205490565b6101a36103cc366004611cb2565b611865565b61017d6103df366004611a6e565b600260209081526000928352604080842090915290825290205481565b6101a361040a366004611a1e565b611922565b6000546001600160a01b031633146104425760405162461bcd60e51b815260040161043990611ccb565b60405180910390fd5b6007805460ff1916911515919091179055565b60075460ff161561049d5760405162461bcd60e51b815260206004820152601260248201527110dbdb9d1c9858dd081a5cc81c185d5cd95960721b6044820152606401610439565b6001600160a01b0381166104eb5760405162461bcd60e51b8152602060048201526015602482015274496e76616c696420746f6b656e206164647265737360581b6044820152606401610439565b3360009081526002602090815260408083206001600160a01b03851684529091529020548061055c5760405162461bcd60e51b815260206004820152601760248201527f4e6f2072656d697474616e636520617661696c61626c650000000000000000006044820152606401610439565b3360008181526002602090815260408083206001600160a01b03871680855292528083208390555163a9059cbb60e01b8152600481019390935260248301849052909163a9059cbb906044016020604051808303816000875af11580156105c7573d6000803e3d6000fd5b505050506040513d601f19601f820116820180604052508101906105eb9190611d02565b90508061062e5760405162461bcd60e51b815260206004820152601160248201527015da5d1a191c985dd85b0819985a5b1959607a1b6044820152606401610439565b336001600160a01b03167fe01911a56be554fae2e8c04ebcc1c56c757ce4583c883b878180a6ce99fc8a0984844260405161066b93929190611d1f565b60405180910390a2505050565b6000546001600160a01b031633146106a25760405162461bcd60e51b815260040161043990611ccb565b6001600160a01b0382166106c85760405162461bcd60e51b815260040161043990611d40565b600081116106e85760405162461bcd60e51b815260040161043990611d67565b6040516323b872dd60e01b8152336004820152306024820152604481018290526000906001600160a01b038416906323b872dd906064016020604051808303816000875af115801561073e573d6000803e3d6000fd5b505050506040513d601f19601f820116820180604052508101906107629190611d02565b9050806107a35760405162461bcd60e51b815260206004820152600f60248201526e151c985b9cd9995c8819985a5b1959608a1b6044820152606401610439565b6001600160a01b038316600090815260036020526040812080548492906107cb908490611da9565b90915550506040517fac1d76749e5447b7b16f5ab61447e1bd502f3bb4807af3b28e620d1700a6ee459061080490859085904290611d1f565b60405180910390a1505050565b6001600160a01b038083166000908152600260209081526040808320938516835292905220545b92915050565b6000546001600160a01b031633146108685760405162461bcd60e51b815260040161043990611ccb565b6001600160a01b0383161580159061088857506001600160a01b03821615155b6108c55760405162461bcd60e51b815260206004820152600e60248201526d496e76616c696420746f6b656e7360901b6044820152606401610439565b816001600160a01b0316836001600160a01b0316036109265760405162461bcd60e51b815260206004820152601e60248201527f43616e6e6f7420736574207261746520666f722073616d6520746f6b656e00006044820152606401610439565b600081116109695760405162461bcd60e51b815260206004820152601060248201526f052617465206d757374206265203e20360841b6044820152606401610439565b6001600160a01b0383811660008181526004602090815260408083209487168084529482529182902085905581519283528201929092529081018290524260608201527f71914933b46ae29d743cacf1b94e794e01834b19e06725b10736a7a44cbc87b790608001610804565b60006001826040516109e89190611de0565b908152604051908190036020019020546001600160a01b031692915050565b6000546001600160a01b03163314610a315760405162461bcd60e51b815260040161043990611ccb565b6001600160a01b038216610a575760405162461bcd60e51b815260040161043990611d40565b60008111610a775760405162461bcd60e51b815260040161043990611d67565b6001600160a01b038216600090815260036020526040902054811115610adf5760405162461bcd60e51b815260206004820152601960248201527f496e73756666696369656e7420706f6f6c2062616c616e6365000000000000006044820152606401610439565b6001600160a01b03821660009081526003602052604081208054839290610b07908490611dfc565b90915550506000805460405163a9059cbb60e01b81526001600160a01b039182166004820152602481018490529084169063a9059cbb906044016020604051808303816000875af1158015610b60573d6000803e3d6000fd5b505050506040513d601f19601f82011682018060405250810190610b849190611d02565b905080610bd35760405162461bcd60e51b815260206004820152601b60248201527f456d657267656e6379207769746864726177616c206661696c656400000000006044820152606401610439565b7f96cd817c6329656790ef8fba7675405193677d39619571282f5e21f3a98cd05983834260405161080493929190611d1f565b6000546001600160a01b03163314610c305760405162461bcd60e51b815260040161043990611ccb565b6001600160a01b038116610c7e5760405162461bcd60e51b8152602060048201526015602482015274496e76616c696420746f6b656e206164647265737360581b6044820152606401610439565b6000825111610cc45760405162461bcd60e51b8152602060048201526012602482015271456d70747920636f756e74727920636f646560701b6044820152606401610439565b80600183604051610cd59190611de0565b90815260405190819003602001812080546001600160a01b03939093166001600160a01b0319909316929092179091557f971672ea31c595f485011d6dfff7a7ab239962b4638f7a56118ad669d9de2c5590610d3690849084904290611e3b565b60405180910390a15050565b6000546001600160a01b03163314610d6c5760405162461bcd60e51b815260040161043990611ccb565b6001600160a01b038216610d925760405162461bcd60e51b815260040161043990611d40565b60008111610db25760405162461bcd60e51b815260040161043990611d67565b6001600160a01b038216600090815260036020526040902054811115610e135760405162461bcd60e51b8152602060048201526016602482015275496e73756666696369656e74206c697175696469747960501b6044820152606401610439565b6001600160a01b03821660009081526003602052604081208054839290610e3b908490611dfc565b90915550506000805460405163a9059cbb60e01b81526001600160a01b039182166004820152602481018490529084169063a9059cbb906044016020604051808303816000875af1158015610e94573d6000803e3d6000fd5b505050506040513d601f19601f82011682018060405250810190610eb89190611d02565b905080610bd35760405162461bcd60e51b815260206004820152600f60248201526e151c985b9cd9995c8819985a5b1959608a1b6044820152606401610439565b6000546001600160a01b03163314610f235760405162461bcd60e51b815260040161043990611ccb565b6001600160a01b03811660009081526006602052604090205480610f7e5760405162461bcd60e51b8152602060048201526012602482015271139bc81999595cc81d1bc818dbdb1b1958dd60721b6044820152606401610439565b6001600160a01b038281166000818152600660205260408082208290558154905163a9059cbb60e01b815293166004840152602483018490529163a9059cbb906044016020604051808303816000875af1158015610fe0573d6000803e3d6000fd5b505050506040513d601f19601f820116820180604052508101906110049190611d02565b90508061104b5760405162461bcd60e51b81526020600482015260156024820152741199594818dbdb1b1958dd1a5bdb8819985a5b1959605a1b6044820152606401610439565b7f2e4fb6077d4acf86e12bb7411fb82b2b3eaa6a49787f4b1e17b423e7ea84116983834260405161080493929190611d1f565b60075460ff16156110c65760405162461bcd60e51b815260206004820152601260248201527110dbdb9d1c9858dd081a5cc81c185d5cd95960721b6044820152606401610439565b6001600160a01b0383166111105760405162461bcd60e51b8152602060048201526011602482015270125b9d985b1a59081c9958da5c1a595b9d607a1b6044820152606401610439565b336001600160a01b038416036111685760405162461bcd60e51b815260206004820152601760248201527f43616e6e6f742073656e6420746f20796f757273656c660000000000000000006044820152606401610439565b600082116111885760405162461bcd60e51b815260040161043990611d67565b60008551116111ce5760405162461bcd60e51b8152602060048201526012602482015271456d7074792066726f6d20636f756e74727960701b6044820152606401610439565b60008451116112125760405162461bcd60e51b815260206004820152601060248201526f456d70747920746f20636f756e74727960801b6044820152606401610439565b60006001866040516112249190611de0565b908152604051908190036020018120546001600160a01b03169150600090600190611250908890611de0565b908152604051908190036020019020546001600160a01b03908116915082166112bb5760405162461bcd60e51b815260206004820152601b60248201527f556e737570706f727465642073656e6465722063757272656e637900000000006044820152606401610439565b6001600160a01b0381166113115760405162461bcd60e51b815260206004820152601e60248201527f556e737570706f7274656420726563697069656e742063757272656e637900006044820152606401610439565b6040516370a0823160e01b815233600482015284906001600160a01b038416906370a0823190602401602060405180830381865afa158015611357573d6000803e3d6000fd5b505050506040513d601f19601f8201168201806040525081019061137b9190611e69565b10156113c05760405162461bcd60e51b8152602060048201526014602482015273496e73756666696369656e742062616c616e636560601b6044820152606401610439565b6040516323b872dd60e01b8152336004820152306024820152604481018590526000906001600160a01b038416906323b872dd906064016020604051808303816000875af1158015611416573d6000803e3d6000fd5b505050506040513d601f19601f8201168201806040525081019061143a9190611d02565b9050806114815760405162461bcd60e51b8152602060048201526015602482015274151bdad95b881d1c985b9cd9995c8819985a5b1959605a1b6044820152606401610439565b6000806001600160a01b038085169086160361149f578691506117cc565b6001600160a01b038086166000908152600460209081526040808320938816835292905220548061150a5760405162461bcd60e51b8152602060048201526015602482015274115e18da185b99d9481c985d19481b9bdd081cd95d605a1b6044820152606401610439565b6127106005548961151b9190611e82565b6115259190611e99565b91506000611533838a611dfc565b90506000876001600160a01b031663313ce5676040518163ffffffff1660e01b8152600401602060405180830381865afa158015611575573d6000803e3d6000fd5b505050506040513d601f19601f820116820180604052508101906115999190611ebb565b90506000876001600160a01b031663313ce5676040518163ffffffff1660e01b8152600401602060405180830381865afa1580156115db573d6000803e3d6000fd5b505050506040513d601f19601f820116820180604052508101906115ff9190611ebb565b90508160ff168160ff161061165157670de0b6b3a76400006116218383611ede565b61162c90600a611fdb565b6116368686611e82565b6116409190611e82565b61164a9190611e99565b955061168f565b61165b8183611ede565b61166690600a611fdb565b61167890670de0b6b3a7640000611e82565b6116828585611e82565b61168c9190611e99565b95505b600086116116df5760405162461bcd60e51b815260206004820152601a60248201527f436f6e76657274656420616d6f756e7420746f6f20736d616c6c0000000000006044820152606401610439565b6001600160a01b0388166000908152600360205260409020548611156117405760405162461bcd60e51b8152602060048201526016602482015275496e73756666696369656e74206c697175696469747960501b6044820152606401610439565b6001600160a01b03891660009081526003602052604081208054859290611768908490611da9565b90915550506001600160a01b03881660009081526003602052604081208054889290611795908490611dfc565b90915550506001600160a01b038916600090815260066020526040812080548792906117c2908490611da9565b9091555050505050505b6001600160a01b03808916600090815260026020908152604080832093881683529290529081208054849290611803908490611da9565b90915550506040516001600160a01b0389169033907f1e2e2ff22fa6f4aecbaa33e91502a657d27753eb4b9fd78da4c5c0c08641c4b490611851908e908e908d90899089908f904290611fea565b60405180910390a350505050505050505050565b6000546001600160a01b0316331461188f5760405162461bcd60e51b815260040161043990611ccb565b6103e88111156118da5760405162461bcd60e51b815260206004820152601660248201527546656520746f6f206869676820286d6178203130252960501b6044820152606401610439565b6005805490829055604080518281526020810184905242918101919091527f73b44e75de5358b5a4a96a4b4b0495aa6db6280393794fb8d3bc4b488455c47690606001610d36565b6000546001600160a01b0316331461194c5760405162461bcd60e51b815260040161043990611ccb565b6001600160a01b0381166119925760405162461bcd60e51b815260206004820152600d60248201526c24b73b30b634b21037bbb732b960991b6044820152606401610439565b6000546001600160a01b03908116908216036119e05760405162461bcd60e51b815260206004820152600d60248201526c20b63932b0b23c9037bbb732b960991b6044820152606401610439565b600080546001600160a01b0319166001600160a01b0392909216919091179055565b80356001600160a01b0381168114611a1957600080fd5b919050565b600060208284031215611a3057600080fd5b611a3982611a02565b9392505050565b8015158114611a4e57600080fd5b50565b600060208284031215611a6357600080fd5b8135611a3981611a40565b60008060408385031215611a8157600080fd5b611a8a83611a02565b9150611a9860208401611a02565b90509250929050565b60008060408385031215611ab457600080fd5b611abd83611a02565b946020939093013593505050565b600080600060608486031215611ae057600080fd5b611ae984611a02565b9250611af760208501611a02565b9150604084013590509250925092565b634e487b7160e01b600052604160045260246000fd5b600082601f830112611b2e57600080fd5b813567ffffffffffffffff80821115611b4957611b49611b07565b604051601f8301601f19908116603f01168101908282118183101715611b7157611b71611b07565b81604052838152866020858801011115611b8a57600080fd5b836020870160208301376000602085830101528094505050505092915050565b600060208284031215611bbc57600080fd5b813567ffffffffffffffff811115611bd357600080fd5b611bdf84828501611b1d565b949350505050565b60008060408385031215611bfa57600080fd5b823567ffffffffffffffff811115611c1157600080fd5b611c1d85828601611b1d565b925050611a9860208401611a02565b600080600080600060a08688031215611c4457600080fd5b853567ffffffffffffffff80821115611c5c57600080fd5b611c6889838a01611b1d565b96506020880135915080821115611c7e57600080fd5b50611c8b88828901611b1d565b945050611c9a60408701611a02565b94979396509394606081013594506080013592915050565b600060208284031215611cc457600080fd5b5035919050565b60208082526018908201527f4f6e6c79206f776e65722063616e2063616c6c20746869730000000000000000604082015260600190565b600060208284031215611d1457600080fd5b8151611a3981611a40565b6001600160a01b039390931683526020830191909152604082015260600190565b6020808252600d908201526c24b73b30b634b2103a37b5b2b760991b604082015260600190565b6020808252601290820152710416d6f756e74206d757374206265203e20360741b604082015260600190565b634e487b7160e01b600052601160045260246000fd5b8082018082111561083857610838611d93565b60005b83811015611dd7578181015183820152602001611dbf565b50506000910152565b60008251611df2818460208701611dbc565b9190910192915050565b8181038181111561083857610838611d93565b60008151808452611e27816020860160208601611dbc565b601f01601f19169290920160200192915050565b606081526000611e4e6060830186611e0f565b6001600160a01b039490941660208301525060400152919050565b600060208284031215611e7b57600080fd5b5051919050565b808202811582820484141761083857610838611d93565b600082611eb657634e487b7160e01b600052601260045260246000fd5b500490565b600060208284031215611ecd57600080fd5b815160ff81168114611a3957600080fd5b60ff828116828216039081111561083857610838611d93565b600181815b80851115611f32578160001904821115611f1857611f18611d93565b80851615611f2557918102915b93841c9390800290611efc565b509250929050565b600082611f4957506001610838565b81611f5657506000610838565b8160018114611f6c5760028114611f7657611f92565b6001915050610838565b60ff841115611f8757611f87611d93565b50506001821b610838565b5060208310610133831016604e8410600b8410161715611fb5575081810a610838565b611fbf8383611ef7565b8060001904821115611fd357611fd3611d93565b029392505050565b6000611a3960ff841683611f3a565b60e081526000611ffd60e083018a611e0f565b828103602084015261200f818a611e0f565b604084019890985250506060810194909452608084019290925260a083015260c0909101529291505056fea2646970667358221220b1912678d364aa1180a848308a5c7d49381d3de5c0c65889ea98d5c023cc0a4264736f6c63430008140033",
  "linkReferences": {},
  "deployedLinkReferences": {}
}